:020000040800F2
:10000000E006002001010008BB330008A12700081A
:10001000B9330008C1060008AD3A0008000000002E
:100020000000000000000000000000002B34000869
:10003000C306000800000000BD3300082D3400088E
:100040001B0100081B0100081B0100081B01000820
:100050001B0100081B010008C5060008A5070008D1
:10006000AB070008B1070008FD0700081B010008E6
:100070001B0100081B0100081B0100081B010008F0
:100080001B0100081B010008410600081B010008B5
:100090001B0100081B0100081B01000839080008AB
:1000A0001B010008E53400081B0100081B010008C3
:1000B000FD340008F1350008FD350008B1270008BF
:1000C000A52700081B0100081B0100081B010008F0
:1000D0001B010008193A0008653A0008713A000847
:1000E000710700081B0100081B010008DFF80CD095
:1000F00000F070FA0048004739430008E00600208D
:100100000648804706480047FEE7FEE7FEE7FEE7B1
:10011000FEE7FEE7FEE7FEE7FEE7FEE79D340008A8
:10012000ED000008202A04DB203A21FA02F0002129
:10013000704721FA02F3D040C2F1200291400843F7
:1001400019467047D2B201E000F8012B491EFBD2DC
:1001500070470022F6E710B513460A4604461946D2
:10016000FFF7F0FF204610BD2DE9FE4F804681EAE3
:100170000300C00F0C46009021F0004123F0004521
:10018000B8EB0200A94105D24046214690461C46E4
:100190000B46024623F00040104347D0270DC7F31B
:1001A0000A00C3F30A510290401A019040286BDA0A
:1001B000C3F3130040F4801B0098924620B1002343
:1001C000D2EB030A63EB0B0B01985946C0F14002D6
:1001D000504600F081F906460D4650465946019AB0
:1001E00000F089F910EB08006141002487EA115200
:1001F00084EAE7731A4340D0009A62B3019A012A55
:100200004FEA075215DC001B61EB02014FF0004280
:1002100002EA0752CDE90042001C41F58011324646
:100220002B4600F089F903B0BDE8F08F4046214627
:10023000F9E7001B61EB0201001C41F58013001877
:100240005B412018A2F5001747EB030140EAD57087
:10025000B6196D4111E06D084FEA360645EAC075E2
:100260004FEA0752001B61EB0201001C41F58011AF
:1002700049084FEA30000019514132462B4603B07D
:10028000BDE8F04F00F049B900980122400000237A
:10029000D0EB020263EBE073009821464FEAE07472
:1002A000B8EB000061EB0401E9E783F000435BE792
:1002B00081F0004158E72DE9FE4F81EA030404F084
:1002C000004421F0004100944FF0000B23F0004364
:1002D00050EA01045ED052EA03045BD0C3F30A542F
:1002E000C1F30A552C44A4F2F3340194A0FB025448
:1002F000C1F3130141F48011C3F3130343F48013DA
:1003000001FB024400FB034E840A970A44EA81542D
:1003100047EA8357A4FB076802958D0A05FB07850A
:100320004FEA932C04FB0C542705029D4FEA065814
:1003300047EA1637B5EB08056EEB070C870E920EF1
:1003400047EA811742EA8312A7FB0201B6EB0B01D1
:1003500064EB00042B0D43EA0C335E1844EB1C5095
:10036000DA465146E7FB0201C5F313044FEA0B33AB
:1003700043EA14534FEA0432019C43EA0603A4F112
:100380000C040294009CCDE900B400F0D5F803B051
:10039000BDE8F08F00200146F9E72DE9F04D81EA34
:1003A000030404F0004B21F0004514464FF0000A0E
:1003B00023F0004150EA050220D054EA01021DD08A
:1003C000C5F30A570246C5F31303C1F31300C1F383
:1003D0000A5640F4801543F48013A7EB0608101B5F
:1003E000D64608F2FD3873EB050002D308F1010888
:1003F00001E092185B41B8F1000F03DA00200146DA
:10040000BDE8F08D00204FF48011064684460EE0D2
:10041000171B73EB050705D3121B63EB050306439C
:100420004CEA010C49084FEA300092185B4150EA4F
:100430000107EDD152EA030012D082EA040083EAF8
:100440000501084305D0101BAB4106D20122002351
:1004500006E000224FF0004302E06FF0010253106B
:100460001AEB06004CEB085110EB0A0041EB0B01B4
:10047000BDE8F04D00F051B80EB5C10F80EAE07054
:100480000844CA07002140F233438DE80E000A46B3
:100490000B4600F051F803B000BD70B5C1F30A522D
:1004A00001F000450024C1F3130140F2FF3341F491
:1004B00080119A4201DA002070BD40F233439A4223
:1004C000A2F2334203DC5242FFF72CFE00E09040E0
:1004D0002C43F1D0404270BD202A04DB203A00FAC0
:1004E00002F1002070479140C2F1200320FA03F38B
:1004F000194390407047202A06DBCB17203A41FA77
:1005000002F043EAE07306E041FA02F3D040C2F1A0
:100510002002914008431946704710B5141E73F12C
:10052000000408DA401C41F1000192185B411A43B3
:1005300001D120F0010010BD2DE9F04D92469B46FF
:1005400011B1B1FA81F202E0B0FA80F220329046A5
:10055000FFF7C2FF04460F4640EA0A0041EA0B01DA
:1005600053465A46084313D0114653EA010019D0A6
:10057000C8F140025046FFF7D5FD05460E465046ED
:1005800059464246FFF7A8FF084305D0012004E082
:1005900020463946BDE8F08D0020054346EAE07666
:1005A0002C4337430A986305E40AA0EB08000022B5
:1005B000FD0A44EA47540A3002D500200146E9E723
:1005C000010510196941DDE9084500196941BDE8D7
:1005D000F04DA2E7064C074D06E0E06840F001034D
:1005E00094E8070098471034AC42F6D3FFF782FD39
:1005F000F8490008184A000870B521F00043034389
:100600000CD0C1F30A550024D5EB040564EB0403B8
:10061000D617AD1AB34102DB0020014670BD201889
:1006200041EB025170BD0EB540F233410291002101
:10063000CDE900110A460B46FFF77EFF03B000BD6F
:10064000014800F0BCB900008400002070B50446E9
:1006500000688168C943C9071CD1816821F0010184
:10066000816000F035FC05460FE000BF00F030FC73
:10067000401B022809D9A06A40F01000A062E06A7D
:1006800040F00100E062012070BD20688068C04336
:10069000C007EBD0002070BD08480121C1810021B6
:1006A0000170417081700222428281718182C17029
:1006B00001714171C1710172417270473C000020AB
:1006C000FEE77047214810B500682149001D01234D
:1006D0000860204914201F4A08701F481F490088DD
:1006E00008804FF6FF7101EA40011D4800F00EFF3F
:1006F0001C4918B3486800BB1B49086840F4004017
:10070000086008684FF6FE72104008600868C0F381
:100710000E00086012484FF48042016013494160A6
:1007200000218160C0E9031241618161C161016200
:1007300000F066FD08B100F0C1F801E0012048605A
:10074000BDE81040012000F0C1BA00001C280040A4
:1007500054000020460000204A00002050000020E5
:10076000B40000203400002000540040A0860100A6
:100770000B4810B50168491C01604FF4806000F01F
:10078000A5FA4FF4006000F0A1FA4FF4805000F099
:100790009DFABDE810404FF4005000F097BA0000F9
:1007A00018000020022000F091BA042000F08EBA58
:1007B0000C4910B5402008700B4802780B4801F036
:1007C000CFFF10B10A49012008700A4900200870C3
:1007D00009480168491C0160BDE81040082000F08C
:1007E00075BA00000A000020030000209C020020CF
:1007F000050000200800002034000020094910B541
:100800004020087008480278084801F0A9FF01213B
:1008100008B10748017007480170BDE8104010207A
:1008200000F054BA0A000020030000209C020020BF
:1008300005000020080000202DE9F0471848006856
:10084000184E194FDFF86480DFF8649040064FF0CF
:10085000C0054FF001040BD475703A783146154845
:1008600001F07EFF08B188F80040002189F80010EF
:100870001148806880060AD475703A7809490D4895
:1008800001F06EFF08B188F8004089F80040202090
:1008900000F01CFABDE8F047402000F017BA000055
:1008A000080801400A000020030000200500002085
:1008B000090000209C020020001001407047704792
:1008C000F8B50024009490F824202546012A12D07F
:1008D000012280F824204A681F23072A0DD20668C7
:1008E000776B521E02EB820293409F430B6893404A
:1008F0001F43776319E00220F8BD06680D2A0AD26B
:10090000376BD21F02EB820293409F430B689340E8
:100910001F43376309E0F76A0D3A02EB8202934006
:100920009F430B6893401F43F7620A6807230668DA
:100930000A2A0AD3F7680A3A02EB420293409F431D
:100940008B6893401F43F76008E0376902EB42026F
:1009500093409F438B6893401F4337610A68102A76
:1009600001D0112A20D1124B02689A4217D1936804
:100970001B0219D4936843F400039360096810299B
:1009800012D10C490C4A0968B1FBF2F101EB81016B
:10099000490000E0491E00910029FBD104E0816A72
:1009A00041F020018162012480F824502046F8BDE6
:1009B000002401407C00002040420F00704710B529
:1009C000044600684168890626D50168890723D551
:1009D000A16AC90603D4A16A41F40071A1628168C9
:1009E000C1F34241072910D1217B71B9416821F03F
:1009F00020014160A06A20F48070A062A06AC00457
:100A000003D4A06A40F00100A0622046FFF7D6FFA1
:100A100021686FF0120008602068416809062ED531
:100A2000016849072BD5A16AC90603D4A16A41F41C
:100A30000051A1628168C1F30231072909D04168E0
:100A4000490515D48168C1F34241072910D1217BA2
:100A500071B9416821F080014160A06A20F48050A2
:100A6000A062A06AC00503D4A06A40F00100A062A1
:100A70002046FFF724FF21686FF00C000860206813
:100A8000416849060DD50068C0070AD0A06A40F445
:100A90008030A062204600F093F821686FF00100DA
:100AA000086010BD2DE9F0414FF0000704003D46FD
:100AB0007ED0A06A002628B9E66284F82460204629
:100AC00000F080F82046FFF7C1FDA16AC90600D4F6
:100AD00020B1A06A40F01000A06269E0A16A21F490
:100AE000885141F00201A1626268E169237B0A43F7
:100AF00047EA43010A43A1684FF48077B94209D01D
:100B0000012907D05FF0000194F814C0BCF1010F77
:100B100002D00AE03946F7E7F3B1A36A43F02003B5
:100B2000A362E36A43F00103E3622368D3F804C0DD
:100B30002CF4694C4CEA010CC3F804C021688B68A2
:100B4000DFF870C003EA0C0313438B60A168B9425D
:100B50000BD0012909D00CE0DFF85CC0A3690CEBD5
:100B600043330B4343F40061DFE7218A0D05A5F50C
:100B700080152168CB6A23F470032B43CB62216874
:100B800089680E4B1940914208D1E662A16A21F0B2
:100B9000020141F00101A162BDE8F081A06A20F0EC
:100BA000020040F01000A062E06A40F00100E06244
:100BB0000120F1E7FDF7E1FF00E0FFFFFE0E1FFF60
:100BC0007047000000B585B00021009101910291AD
:100BD000039100681249884220D11248816941F48A
:100BE00000718161816901F400710491816941F0B2
:100BF000100181618069694600F0100004901020A6
:100C0000009003200190084800F06CF80022114683
:100C1000122000F08BFD122000F07AFD05B000BD1F
:100C200000240140001002400010014010B590F86F
:100C300021100024022903D00421816301243DE016
:100C400001680A6822F00E020A6001680A6822F050
:100C500001020A601A4A0168914201D1012121E092
:100C6000174A1432914201D110211BE0144A283254
:100C7000914201D1891515E0114A3C32914201D1CE
:100C800089140FE00E4A5032914202D14FF4803164
:100C900008E00B4A6432914202D14FF4801101E026
:100CA0004FF08071064A083A5160012180F8211006
:100CB000002180F82010416B01B18847204610BD0B
:100CC0000800024090F8210070477047044910B5B1
:100CD0000A68024202D00860FFF7F7FF10BD00006B
:100CE000140401402DE9F84FDFF8B891002409F110
:100CF000040A0AF1040B23460F270BF1040EC9E086
:100D00000125A5402A40AA427DD1674ED1F804C0F2
:100D1000ACEB0608B44532D014DCBCF1030F3AD07A
:100D200009DCBCF1000F2AD0BCF1010F1CD0BCF1D2
:100D3000020F31D11DE0BCF1110F17D0BCF1120F21
:100D40002AD119E0B8F5881F19D006DCB8F5803F24
:100D500015D0B8F5801F1FD111E0B8F5001F0ED0D7
:100D6000B8F5041F18D10AE0CB6815E0CB681B1D4D
:100D700012E0CB6808330FE0CB680C330CE08B68D3
:100D80002BB1012B4FF0080303D0456104E004238D
:100D900002E0056100E00023FF2A01D8064601E0D9
:100DA00000F104064FEA840501D9A5F12005D6F823
:100DB000008007FA05FC28EA0C0803FA05F548EA62
:100DC0000508C6F800804D68ED0062D5374DAE6964
:100DD00046F00106AE61AD6924F0030605F0010599
:100DE0000095334D06EB050CDCF80850A607360FCE
:100DF00007FA06F825EA0805DFF8B880404503D170
:100E00004FF0000817E044E0DFF8AC80404502D125
:100E10004FF001080FE0DFF8A480404502D14FF009
:100E2000020808E0DFF89880404502D14FF003083F
:100E300001E04FF0040808FA06F848EA0508CCF883
:100E400008804D68D9F80060ED034D4601D5164382
:100E500000E096432E604D68DAF80060AD03554619
:100E600001D5164300E096432E604D68DBF8006024
:100E7000ED025D4601D5164300E096432E604D68B5
:100E8000DEF80060AD02754601D5164300E09643DA
:100E90002E60641C0D682A46E5407FF431AFBDE842
:100EA000F88F000000040140000011100010024003
:100EB0000000014000080140000C0140001001400A
:100EC000001401400AB1016170470904FBE700000A
:100ED000014880687047000070000020704770472C
:100EE0002DE9F04104460068416946680025CF437A
:100EF000F9050BD4F143C90508D46FF480710125BD
:100F000041612068016841F400410160B80508D4DE
:100F1000F043C00505D421686FF4007045F0020568
:100F20004861780527D4F043C00524D494F83E30B6
:100F3000628D94F83D00216B202B08D13AB921280D
:100F400010D029280ED0282801D121290AD02168C3
:100F50006FF48060486194F83E0045F00405102865
:100F600004D008E0204601F073FF04E02068016827
:100F700041F400710160380508D4F043C00505D480
:100F800021686FF4006045F008054861002D07D026
:100F9000206C284320642046BDE8F04101F04EBC9F
:100FA000BDE8F0812DE9F041026800245168C56A6E
:100FB00090F83E3090F83D60102B1CD0402B1AD09A
:100FC000036C002B7ED053694FF02805DB439F074D
:100FD00079D4CF43BF0576D4016C01B1946990F800
:100FE0003D3000219D430B467FD0C91E516180F8E2
:100FF0003C30BDE8F081946953694FF42A07DB4324
:101000005FEAC37C4FF02A4604D0BD42F1D0B5421E
:10101000EFD010E0CD43AD050DD4C16AB94201D186
:10102000012103E0C16AB14201D10821C162BDE8DA
:10103000F04101F0C5BE1D0716D4CD43AD0513D454
:10104000416CC9B21161416B11B9826B002AD0D0D9
:10105000896A19B9816B896A0029CAD00068416818
:1010600041F400614160C4E79D0706D4CD43AD055E
:1010700003D4BDE8F04101F0F7BDE44352686407D2
:101080004FEA025215D4002AB3DB1A0608D4CA4329
:10109000520505D45A0705D5BDE8F04101F062BDFF
:1010A0005A07A6D4C9438905A3D4BDE8F04101F08D
:1010B00017BD002A9DDB5A060CD4CA43520509D439
:1010C0005A0702E00FE023E00FE005D5BDE8F0414C
:1010D00001F0BDBC5A078CD4C943890589D4BDE849
:1010E000F04101F04BBC94696DE7556825F48065CB
:1010F0005560E243540700D50121120601D58289CB
:1011000000E0028B80F83C3092B2FFF7E8FE70E717
:10111000DC0606D4CC43A40503D4BDE8F04101F0BD
:10112000D9BE212E27D0292E25D05C0655D4CC43FC
:10113000640552D45B0752D590F83D10438D002BC7
:1011400091D01269436A1A70426A521C4262428DFF
:10115000521E4285428D002A85D12A29D7D10168A5
:101160004A6822F480624A602221016380F83D507F
:1011700000F074FA3DE71C0623D4CC43640520D468
:101180005B0720D590F83D10438D002BBFD0436AFC
:101190001B781361426A521C4262428D521E428584
:1011A000428D002AB3D12929B1D101684A6822F4BD
:1011B00080624A602121016380F83D5000F04FFABF
:1011C00017E75B07A3D4C9438905A0D4418D002943
:1011D0009DD0416A097811610AE05B0797D4C94341
:1011E000890594D4418D002991D01169426A11700A
:1011F000416A491C4162418D491E4185F9E67047AB
:1012000070B504001BD094F83D00002520B984F887
:101210003C50204600F0DAF9242084F83D00206894
:10122000016821F00101016000F028FC4D4A61686D
:10123000914201D84C4900E04C49884201D201203A
:1012400070BD4B492368B0FBF1F15E6826F03F06A4
:101250000E435E606368934206D94FF49673594318
:101260004FF47A73B1FBF3F12368491C1E6A26F030
:101270003F06314319626168914210D84900401E0F
:10128000B0FBF1F2521CC2F30B02042A01D204207B
:1012900022E0B0FBF1F0401CC0F30B001CE0A3689F
:1012A000F3B301EBC10202EB0116421EB2FBF6F2F0
:1012B000521C42F48042120549D093B301EBC102A3
:1012C00002EB0111401EB0FBF1F0401CC0F30B001B
:1012D00040F4804040F400402168CA694CF6FF7336
:1012E0009A431043C861D4E90701084321680A689A
:1012F00022F0C00210430860D4E9030101432068D2
:10130000826848F2FF339A4311438160D4E90501B2
:1013100008432168CA6822F0FF021043C86001E058
:101320000EE016E02068016841F0010101602564CB
:10133000202084F83D00256384F83E50002070BDD5
:1013400001EB4106421EB2FBF6F2521CB3E701204C
:10135000C2E701EB4101401EB0FBF1F0401CC0F3BD
:101360000B00B7E7A086010080841E0000093D0045
:1013700040420F007047000030B51E48002100F1C8
:101380000C02848AC5891378AC420BD1047884702E
:101390000370557845701170517081829C4200D164
:1013A000047030BD458AAC4207D1124A103213781E
:1013B000837111705170818230BDC5780124012D77
:1013C0000AD0C579012DF7D1C17111705170202B50
:1013D00001720CD0417230BDC170117051701F2B61
:1013E000017101D0417130BD0170447130BD447252
:1013F00030BD00003C000020114A30B4D589938AEA
:101400004FF6FF7404EA4501AB4201D102230FE01D
:10141000558AAB4205D10A4A012304EA450110323C
:1014200008E0D378012B02D0D279012A05D101231B
:10143000034A0C3230BC00F005B830BC70470000E5
:101440003C00002078B50024009490F83D50202DF9
:1014500055D12C4D46F2A8162D68B5FBF6F505EBD7
:10146000C50606EB051500956D1E009506D00568AE
:10147000AD69ED43AD070DD4009DF5E740F8304F61
:10148000202141738473016941F0200101610473DB
:10149000012078BD90F83C50012D30D0012580F816
:1014A0003C5005682E68F60703D12E6846F0010609
:1014B0002E6005682E6826F400662E60222580F8CE
:1014C0003D50102580F83E50046442624385428DB1
:1014D00002850D4AC262416401680A6842F4806272
:1014E0000A6001680A6842F480720A6080F83C4031
:1014F0000068416841F4E0614160002078BD02204D
:1015000078BD00007C0000200000FFFF78B50024BB
:10151000009490F83D50202D50D1294D46F2A81648
:101520002D68B5FBF6F505EBC50606EB0515009530
:101530006D1E009506D00568AD69ED43AD070DD46D
:10154000009DF5E740F8304F202141738473016915
:1015500041F0200101610473012078BD90F83C50F6
:10156000012D2BD0012580F83C5005682E68F60728
:1015700003D12E6846F001062E6005682E6826F419
:1015800000662E60212580F83D50102580F83E50E1
:10159000046442624385428D02850A4AC262416404
:1015A00001680A6842F480720A6080F83C40006872
:1015B000416841F4E0614160002078BD022078BDBF
:1015C0007C0000200000FFFF7047704710B586B018
:1015D0000021009101910291039100681B4988420A
:1015E00032D11B4CA06940F00800A061A069694697
:1015F00000F0080004904FF4407000901220019019
:10160000032003901348FFF76DFB1348416841F036
:10161000E06141F002014160E06940F40010E061E6
:10162000E069002200F40010049011461F2000F031
:101630007DF81F2000F06CF800221146202000F0F9
:1016400075F8202000F064F806B010BD005400408A
:1016500000100240000C014000000140704770473C
:101660000248816802781144816070477000002050
:10167000074810B5016841F010010160032000F037
:1016800075F8002000F006F800F024F8002010BDE6
:101690000020024070B50D4D04464FF47A71287851
:1016A000B1FBF0F00A490968B1FBF0F000F053FC1F
:1016B00048B9102C07D200222146501E00F036F8FF
:1016C00000206C6070BD012070BD00007000002023
:1016D0007C0000200C4808B5816941F0010181615E
:1016E000816901F001010091C16941F08051C1613E
:1016F000C06900F0805000900448416821F0E0612A
:1017000041F00071416008BD00100240000001403E
:10171000002809DB00F01F020121914040098000F0
:1017200000F1E020C0F8001170470000F0B40E4B4B
:101730001B680C46C3F30223C3F10705042D00D92F
:101740000425191D072901D2002300E0DB1E012614
:1017500006FA05F1491E214099409E40761E16402A
:101760003143F0BC02F0B7B90CED00E0064900F0DF
:10177000070208684FF6FF03184040EA0220034AB8
:1017800010430860704700000CED00E00000FA050F
:10179000014901200862704700000E4210B529A4DB
:1017A00001461DCC86B08DE81D002AA02A4C006899
:1017B00004900020012923D002293AD010291DD1FC
:1017C00061682268D20119D5C1F38342C9031DF8AB
:1017D000020009D5616804AAC1F34041515C1F4A67
:1017E000B2FBF1F1484301E01D49484361684902F9
:1017F00004D440005FF00301B0FBF1F006B010BD6F
:10180000226AC2F30121012903D1920701D5C8033D
:10181000F4E7022905D1626A920702D549F64040F1
:10182000ECE70329EAD121688903E7D54FF2244088
:10183000E4E700F033F96168C1F38131491C4900E4
:10184000DAE7000002030405060708090A0B0C0D7D
:101850000E0F1010010200000010024000127A006A
:1018600000093D002DE9F84305460078354CC007D6
:1018700054D0E0690026C00008D4E06940F08050F0
:10188000E061E069012600F0805000902E48016878
:10189000C90512D40168804641F480710160FFF7E8
:1018A00017FB074605E000BFFFF712FBC01B6428CB
:1018B00023D8D8F80000C005F6D5206A10F440708F
:1018C00021D0A98801F4407181421CD0206A1F49AF
:1018D000012220F440700A6000220A602062C007E2
:1018E00011D0FFF7F5FA074641F2883808E000BF4B
:1018F000FFF7EEFAC11B414502D90320BDE8F8838A
:10190000206A8007F4D5206A696820F44070084393
:1019100020621EB1E06920F08050E06128788007E5
:1019200005D56068A96820F44040084360602878C5
:10193000C00605D56068E96820F48000084360604F
:101940000020DBE7001002400070004040044242EB
:101950002DE9F0470F46050061D0434E306800F096
:101960000700B84209D2306820F0070038433060E1
:10197000306800F00700B84251D128683B4C81071D
:1019800012D5400703D5606840F4E06060602878B5
:10199000000703D5606840F4605060606068A96823
:1019A00020F0F000084360602878C00728D06868FD
:1019B000012810D02168022810D0890700292EDACA
:1019C000616821F0030101436160FFF781FA8046FD
:1019D00041F288390DE021688903EFE78901EDE7DD
:1019E000FFF776FAA0EB0801494502D90320BDE8CC
:1019F000F0876068696800F00C00B0EB810FEFD1F0
:101A0000306800F00700B8420BD9306820F00700BA
:101A100038433060306800F00700B84201D0012040
:101A2000E5E72878400705D56068E96820F4E060BC
:101A3000084360602878000706D56068296920F4AB
:101A4000605040EAC100606000F038F86168084A00
:101A5000C1F30311515CC84006490860064800689C
:101A6000FFF718FE0020C2E70020024000100240ED
:101A7000C04800087C00002074000020044805498C
:101A800000684968044AC1F30221515CC8407047AC
:101A90007C00002000100240D0480008044805499E
:101AA00000684968044AC1F3C221515CC8407047CC
:101AB0007C00002000100240D048000812A185B030
:101AC0000FC98DE80F0014A0144A006804905168F3
:101AD000134801F00C03042B10D0082B0ED1C1F3D6
:101AE0008343C9031DF803000AD5516804AAC1F352
:101AF0004041515C0A4A5043B0FBF1F005B07047D9
:101B000008494843FAE700000203040506070809EC
:101B10000A0B0C0D0E0F1010010200000010024005
:101B200000127A0000093D002DE9F84F040070D042
:101B30002078C04DC00749D06868C0F381000128F3
:101B400007D06868C0F38100022809D16868C00323
:101B500006D52868800339D560680028E7D035E0CD
:101B60006068B0F5803F0BD010B1B0F5A02F11D058
:101B7000286820F480302860286820F4802002E063
:101B8000286840F480302860606890B1FFF7A0F9C1
:101B900006460AE0286840F480202860F0E700BF8D
:101BA000FFF796F9801B642873D828688003F7D55F
:101BB0000CE0FFF78DF9064605E000BFFFF788F956
:101BC000801B6428F0D828688003F7D420789A4EC8
:101BD00080074FF001094FF0000839D5686810F010
:101BE0000C0F07D06868C0F38100022809D168682B
:101BF000C00306D42868800714D52069012808D1BD
:101C000010E02069B0B1C6F80090FFF761F907460F
:101C100005E00AE1FFF75CF9C01B0228C4D8286878
:101C20008007F7D52868616920F0F80040EAC10014
:101C300028600DE0C6F80080FFF74AF9074604E087
:101C4000FFF746F9C01B022823D828688007F7D47D
:101C5000207800072CD57948A169D9B1C0F8009047
:101C6000FFF736F9074604E0FFF732F9C01B0228F8
:101C70000FD8686A8007F7D571484FF4FA510068A9
:101C8000B0FBF1F0009000BF0098411E0091FAD225
:101C90000EE080E0C0F80080FFF71AF9074604E084
:101CA000FFF716F9C01B022875D8686A8007F7D4B9
:101CB0002078400760D5E8690027C00008D4E869AB
:101CC00040F08050E861E869012700F08050009002
:101CD0005C480168C90513D40168834641F48071EA
:101CE0000160FFF7F5F8824606E000BFFFF7F0F865
:101CF000A0EB0A0064284ED8DBF80000C005F5D53B
:101D0000E06801280AD008B1052813D0286A20F01D
:101D100001002862286A20F0040002E0286A40F0EE
:101D200001002862E06841F2883B98B1FFF7D0F8E3
:101D300082460BE0286A40F004002862EEE700BF0C
:101D4000FFF7C6F8A0EB0A0159455AD8286A800760
:101D5000F6D50CE0FFF7BCF8824605E0FFF7B8F8CF
:101D6000A0EB0A0159454CD8286A8007F6D41FB168
:101D7000E86920F08050E861E06988B36968C1F3E0
:101D80008101022944D00228C6F8608004D0FFF700
:101D90009FF8044638E034E0FFF79AF8074604E07D
:101DA000FFF796F8C01B02282BD828688001F7D4CB
:101DB000206AB0F5803F05D16868A16820F4003042
:101DC00008436860D4E908010843696821F4741184
:101DD00008436860C6F86090FFF77AF8044606E0AA
:101DE00025E000BFFFF774F8001B022809D8286817
:101DF0008001F7D51BE000BFFFF76AF8001B02283F
:101E000002D90320BDE8F88F28688001F4D40EE0E1
:101E10000128F7D06868226A00F48031914204D129
:101E2000616A00F47010884201D00120EAE70020C6
:101E3000E8E70000001002400000424280044242F5
:101E40007C0000200070004070B5040003D0607C6E
:101E5000002610B105E0012070BD2674204600F078
:101E600043F802206074204600F058F8042578BB3F
:101E7000204601F0A4FA58BB2068416821F0070110
:101E80004160A06820B11748016821F0010101609C
:101E90001448001F0168A26821F4607111430160B9
:101EA0006068411C04D10120FFF778FC80B1401E1E
:101EB00021688A6822F00F0242EA10428A60216893
:101EC000CA6860F30F02CA60204601F093FA08B1B5
:101ED0006574C0E7E67301206073A073607400202E
:101EE00070BD0000306C004008B5006808498842A9
:101EF0000DD1FFF74DFC0748C16941F00061C16198
:101F0000C069054900F0006000900120086008BD2C
:101F100000280040001002403C04424270B504001A
:101F20000AD02068416821F008014160FEF7D0FF27
:101F300005464FF47A7608E0012070BDFEF7C8FF31
:101F4000401BB04201D9032070BD206840680007E3
:101F5000F4D5002070BD10B5401EB0F1807F01D3D4
:101F6000012010BD4FF0E02460610F21601701F0E7
:101F7000B2FD0020A06107202061002010BD704745
:101F8000704770B590F83C20012A19D0012400F860
:101F90003C4F0222427050F83C3C5A689D6822F047
:101FA00070060A684968324325F0800529435A6063
:101FB00050F83C2C9160447000210170084670BDBF
:101FC000022070BD10B5040003D094F83D0010B19C
:101FD00007E0012010BD002084F83C00204600F0FE
:101FE0000DF8022084F83D00211D206801F018FB47
:101FF000012084F83D00002010BD000008B5274AEC
:102000000168274891420ED1816941F400618161E4
:102010008069002200F40060009011461920FFF74B
:1020200085FB192034E0B1F1804F11D01D4A914257
:102030001DD1C16941F00201C161C069002200F0F7
:102040000200009011461D20FFF770FB1D201FE0CD
:10205000C16941F00101C161C069002200F00100C5
:10206000009011461C20FFF761FB1C2010E00E4A77
:10207000914211D1C16941F00401C161C0690022DE
:1020800000F00400009011461E20FFF74FFB1E20B9
:10209000BDE80840FFF73CBB08BD0000002C014034
:1020A00000100240000400400008004070B50446E3
:1020B00090F83C00012817D0012584F83C500220FC
:1020C00084F83D002068826822F0770222F47F4283
:1020D00082600868502830D00DDC20284DD005DC07
:1020E00098B310283BD148E0022070BD302844D07E
:1020F000402834D139E0602828D0702806D0B0F5C7
:10210000805F2CD0B0F5005F29D10AE0CB68D1E91F
:102110000121206801F0BAFA2068816841F0770156
:1021200009E0CB68D1E90121206801F0AFFA20680D
:10213000816841F48041816011E0CA684968206883
:1021400001F058FB5021206807E016E0CA68496892
:10215000206801F060FB6021206801F0A1FA84F89A
:102160003D50002084F83C0070BDCA684968206872
:1021700001F040FB40212068EFE72268014610464D
:10218000EBE7704770B50446006801694FF0000541
:10219000C943890715D4C168C943890711D4E91E09
:1021A000016101202077206880698007204602D0E5
:1021B000FFF7E7FF04E000F0CBF8204600F04DF910
:1021C000257720680169C943490717D4C168C94305
:1021D000490713D46FF004010161022020772068C1
:1021E000806910F4407F204602D0FFF7CAFF04E068
:1021F00000F0AEF8204600F030F92577206801693C
:10220000C943090716D4C168C943090712D46FF03E
:1022100008010161042020772068C06980072046FA
:1022200002D0FFF7AEFF04E000F092F8204600F085
:1022300014F9257720680169C943C90617D4C16814
:10224000C943C90613D46FF010010161082020773B
:102250002068C06910F4407F204602D0FFF791FF4C
:1022600004E000F075F8204600F0F7F825772068C4
:102270000169C943C90708D1C168C943C90704D165
:10228000891E0161204600F0E9F820680169C94310
:10229000090609D4C168C943090605D46FF0800155
:1022A00001612046FFF76BFE20680169C9434906BA
:1022B00009D4C168C943490605D46FF040010161E2
:1022C000204600F0CCF820680169C94389060BD488
:1022D000C168C943890607D46FF020010161204617
:1022E000BDE87040FFF74CBE70BD000000B585B082
:1022F00000210091019102910391006810498842E8
:102300001BD11048816941F01001816180696946E3
:1023100000F0100004904FF47070009002200190C3
:1023200003900948FEF7DEFC0848416821F440614B
:1023300041F0E06141F44061416005B000BD000042
:102340000004004000100240001001400000014065
:10235000704770B5044690F83C000D4601280DD03A
:10236000012684F83C60022084F83D0042B1042A32
:1023700018D0082A2AD00C2A4DD139E0022070BD8D
:10238000206801F095F92068816941F008018161B8
:102390002068816921F004018161206881692A69CE
:1023A000114311E0206801F0ABF92068816941F424
:1023B000006181612068816921F480618161206808
:1023C00081692A6941EA0221816124E0206801F0E3
:1023D000C3F92068C16941F00801C1612068C16981
:1023E00021F00401C1612068C1692A69114311E02B
:1023F000206801F0DDF92068C16941F40061C16124
:102400002068C16921F48061C1612068C1692A69BD
:1024100041EA0221C16184F83D60002084F83C005B
:1024200070BD10B5040003D094F83D0010B107E072
:10243000012010BD002084F83C00204600F00CF87C
:10244000022084F83D00211D206801F0E9F80120F8
:1024500084F83D00002010BD7047704770477047FA
:102460007047000070B5026804461068D16853696F
:1024700010F00F0F50D003F0010501F490763543B2
:102480005DD0C20705D0CA0503D5E26B42F0010258
:10249000E263420705D5DA0703D0E26B42F002029D
:1024A000E263820705D5DA0703D0E26B42F004024B
:1024B000E263020705D5DA0703D0E26B42F00802B7
:1024C000E263E26B002A33D0800604D5880602D589
:1024D000204601F0C8F920684069E16BC0F3801024
:1024E000090700D428B3204601F0AFF920684169FC
:1024F00049061AD5416921F040014161606BA0B1E4
:102500001B494163606BFEF791FB002810D0606BA4
:10251000416BBDE870400847830610D58B060ED589
:102520002046BDE8704001F09EB92046FFF798FFB5
:1025300070BD2046FFF794FF0020E06370BD0306E6
:1025400006D50B0604D52046BDE8704001F032BA2E
:102550004006F3D54806F1D5D168204621F0400168
:10256000D160202184F8391000F019F970BD000005
:102570003B38000870B5040004D094F839000025F9
:1025800010B106E0012070BD84F83850204600F0FC
:1025900023F8242084F839002068C16821F4005110
:1025A000C160204601F0AAF92068016921F4904138
:1025B00001612068416921F02A0141612068C168F8
:1025C00041F40051C160E563202084F8390084F8AB
:1025D0003A00002070BD000070B586B00024009461
:1025E000019402940394424E02684249022003235C
:1025F000414DB2422DD18A6942F480428A618A6992
:1026000002F4804204928A6942F008028A61896970
:10261000039301F0080104914021CDE900106946BF
:102620002846FEF75FFB8020CDE900046946284676
:102630000294FEF757FB3148416841F0E06141F0F8
:1026400004014160002211462520FFF76FF8252084
:1026500020E02B4EB24221D1CA6942F40032CA6155
:10266000CA6902F4003204928A6942F004028A6163
:102670008969039001F0040104910C21CDE9001057
:1026800069462048FEF72EFB002211462620FFF760
:102690004DF82620FFF73CF806B070BD1A4EB24246
:1026A000FAD1CA6942F48022CA61CA6902F480225E
:1026B00004928A6942F008028A618969039301F0F1
:1026C000080104913115CDE9001069462846FEF74E
:1026D00009FBF014CDE90004694628460294FEF790
:1026E00001FB002211462720FFF720F82720D1E721
:1026F0000038014000100240000C01400000014081
:1027000000440040000801400048004090F83A3082
:10271000202B22D1F9B1F2B190F83830012B1CD026
:1027200081628285C2850021C163222280F83A201D
:1027300080F838100168CA6842F48072CA60016883
:102740004A6942F001024A610068C16841F0200113
:10275000C160002070470120704702207047704719
:1027600090F83930202B18D1A9B1A2B190F83830A7
:10277000012B12D001628284C2840021C163212214
:1027800080F8392080F838100068C16841F0800175
:10279000C1600020704701207047022070477047D9
:1027A000FEE700000148FEF79BBB0000B4000020DC
:1027B0000148FEF7F7BB0000B400002010B5406AE6
:1027C00090F83D30426B00219162826B9162026809
:1027D000146824F4806414604185426B5163826BF9
:1027E00051630268146824F00104146090F83D20DD
:1027F0002024602A0BD0282232EA03030FD080F86D
:102800003D4080F83E1000BFFEF7F9FC10BD80F897
:102810003D4080F83E100164FEF760FB10BD036888
:102820001C6844F001041C6003681C6844F4806464
:102830001C60016380F83D20E6E7000070B50446A7
:1028400090F83D0094F83E10102906D1222804D1BA
:1028500021680A6822F400620A60282131EA000235
:102860004FF000054FF0200626D021684968090581
:1028700003D4602801D084F83D60256384F83E507D
:1028800020684168090537D5416821F4006141603D
:10289000606B384990F82120012A11D04163606BA8
:1028A000FEF7C4F938B32068016821F00101016026
:1028B00084F83D60606B1CE0256384F83D10DFE721
:1028C000A06B4163A06BFEF7B1F9A0B1206841692C
:1028D000C943490605D40069616A0870606A401CF2
:1028E00060622068016821F00101016084F83D60A8
:1028F000A06B416B884710E094F83D10602923D00D
:102900004169C943490605D40069616A0870606A73
:10291000401C60622046FEF772FC94F83D00216C7A
:10292000490710D528280ED12068416821F4E061BC
:1029300041601148E062256384F83D6084F83E50B0
:102940002046FEF717FD70BD84F83D60256441699F
:10295000C943490605D40069616A0870606A401C71
:1029600060622068016821F0010101602046FEF7E5
:10297000B5FAD2E7BD2700080000FFFF10B5C26A14
:10298000438D0168042B06D0438D032B08D0438D63
:10299000022B1DD012E04A6822F480624A600CE0EB
:1029A0004B6823F480634B60042A06D0022A04D0CB
:1029B00001680A6822F480620A6001680969426A53
:1029C0001170416A491C4162418D491E418510BD0B
:1029D000012A30D0102A2ED0042A30D0022A2ED03C
:1029E0000A6842F400720A6001680969426A11705B
:1029F000416A491C4162428D521E42850268126939
:102A00000A70416A491C4162418D491E4185016835
:102A10004A6822F440724A60202180F83D1090F804
:102A20003E200021402A80F83E100CD01221016384
:102A3000FEF7A2FC10BD0A6822F48062D3E70A68A0
:102A400042F48062CFE70163FEF7BEFD10BD10B512
:102A500090F83D10222914D1418D032912D9016823
:102A60000969426A1170416A491C4162418D491EDF
:102A70004185418D032904D10068416821F48061BA
:102A8000416010BDC26A022AFBD0012901D0002991
:102A9000F7D101680A6822F480620A6001684A6816
:102AA00022F4E0624A6001680969426A1170416A71
:102AB000491C4162418D491E4185202180F83D100D
:102AC00090F83E200021402A80F83E1004D01221C8
:102AD0000163FEF751FC10BD0163FEF775FD10BDEB
:102AE00010B5C26A90F83D1021290BD1418D51B12A
:102AF000416A026809781161416A491C4162418D4D
:102B0000491E418510BD20230021082A13D0202A08
:102B100011D012F5803F0ED00268546824F4E064AE
:102B200054601122026380F83E1080F83D3000BFEF
:102B3000FEF762FC10BD0268546824F4E06454603F
:102B40000268146844F400741460016380F83D3036
:102B500090F83E2080F83E10402AE9D1FEF735FD7E
:102B600010BD000010B590F83D1090F83E30C26ADC
:102B7000048D64B1212903D0402B21D122291FD1FA
:102B8000418DA1B390F83E10402937D046E021296D
:102B9000F2D120230021082A13D0202A11D012F5C7
:102BA000803F0ED00268546824F4E064546011221F
:102BB000026380F83E1080F83D3000BFFEF71CFC39
:102BC00010BD0268546824F4E0645460026814681C
:102BD00044F400741460016380F83D3090F83E20A6
:102BE00080F83E10402AE9D1FEF7EFFC10BDFFE768
:102BF0000068416821F480614160F7E7016DC1B16F
:102C0000016D012922D0016D0229EFD190F83D100C
:102C1000222923D090F83D102129E7D1416A02688A
:102C200009781161416A491C4162418D491E418503
:102C3000DCE7C16C0129816C02D0C1F3072107E0F8
:102C40000268C9B21161016D891C05E0816CC9B2CD
:102C500002681161016D491C0165C7E700680168E0
:102C600041F480710160C1E778B590F83E50C26AC6
:102C7000046B90F83D6000230168222E73D1066D2D
:102C80000EB9402D6FD0056D1DB90569B5F5404FE2
:102C90001BD0458D95B3468D484D012E20D0448DD7
:102CA000022C4DD00C6844F480640C6001684C68C0
:102CB000240579D5AA4273D0012A71D0082A6FD091
:102CC000102A6DD0202A6BD06EE04A698A69009282
:102CD0000A6842F480720A60016D491C016578BD82
:102CE000AA4214D10A6822F480620A6001684A6824
:102CF000120504D50A6822F4806217E0FFE74A69EA
:102D00008A6900920A6842F400720A6050E0082A58
:102D100010D0202A0ED0122C0AD0042A03D0022A66
:102D200001D0102AE6D10A6842F480620A603BE0D2
:102D3000012ADFD00A6822F480620A600168DEE7B7
:102D4000042A11D0022A0FD0102A0DD00C6844F4A6
:102D500000640C6001684C698C6900940C6824F470
:102D600080640C6008E025E00C6844F480640C602A
:102D700001684C698969009101684C68240517D580
:102D8000AA4207D0012A05D0082A03D0102A01D070
:102D9000202A0DD14A6842F480524A6008E0FFE7D9
:102DA0004A6842F480524A6001684A698969009120
:102DB000036578BD48698869009078BD0000FFFF11
:102DC00090F83E10402910D00169B1F5804F19D01C
:102DD000016DB1B3016D012910D1416C5FF0F102B9
:102DE00001F4407142EAD11106E0016D0029416C05
:102DF00005D0C9B241F0010100680161704701F0DE
:102E0000FE01F9E790F83D102129416C07D0C9B2C5
:102E100041F0010102681161416B31B902E001F03A
:102E2000FE01F7E7826B002AE8D0896A19B9816B45
:102E3000896A0029E2D00068416841F4006141607C
:102E40007047FFE7416CF02201F44071CAE70000CF
:102E50002DE9F04190F83D40C26A002320261C4F26
:102E600001686FF48065082A01D0202A01D1282C3E
:102E700004D0212C16D04D61BDE8F081C7624A68AC
:102E800022F4E0624A6001684D6101680A6822F438
:102E900080620A60036380F83D6080F83E30FEF790
:102EA00069FAE9E7C7622122026380F83D6080F891
:102EB0003E304A6822F4E0624A6001684D61016870
:102EC0000A6822F480620A60FEF7C9FBD4E70000BA
:102ED0000000FFFFF8B590F83D60044600684168C7
:102EE00021F4E0614160206800254169009101689A
:102EF00041F0010101602068016821F480610160F6
:102F000020684168090520D5474F222E48D02A2E37
:102F100046D0616B096849686185618D19B1216C82
:102F200041F004012164416821F400614160606B5B
:102F3000FDF7C8FE012808D0606B4763606BFDF7A2
:102F400075FE10B1606B416B8847608D08B32068D7
:102F50004169C943490708D40069616A0870606A19
:102F6000401C6062608D401E608520684169C943D5
:102F7000490608D40069616A0870606A401C606292
:102F8000608D401E6085608D18B1206C40F004009B
:102F90002064206C00B32046BDE8F840FFF74EBC2B
:102FA000A16B096849686185618D19B1216C41F097
:102FB00004012164416821F400614160A06BFDF7C8
:102FC00081FE0128C1D0A06B4763A06BFDF72EFEE8
:102FD0000028BAD0A06BB6E72A2E06D12563282098
:102FE00084F83D002046FEF739FB94F83D10202080
:102FF00028290DD0216B222901D0222E07D125634B
:1030000084F83D0084F83E502046FEF727FBF8BDCB
:103010000649E162256384F83D0084F83E5020466D
:10302000FEF7A8F9F8BD0000BD2700080000FFFF6B
:103030003EB500240D480094019402940A4984602E
:10304000016004730475012505614FF4602144603B
:10305000C161FDF727FD0E20CDE900056946029408
:103060000248FDF72DFC3EBD0024014084000020F5
:103070002DE9F04F85B00024634800940194029438
:103080000394816941F010018161816901F01001AF
:103090000491816941F020018161816901F0200181
:1030A0000491816941F004018161816901F00401A9
:1030B0000491816941F0080181618069DFF84CA1C8
:1030C00000F008004FF4687704900022394650461B
:1030D000FDF7F8FEDFF838B14DF204090022494649
:1030E0005846FDF7EFFE4FF4E058002241464948AC
:1030F000FDF7E8FE484D42F20400CDE900056946BF
:1031000002944448FDF7EEFD444E2820CDE9000628
:10311000694602943F48FDF7E5FD5020CDE90006E1
:10312000694602945046FDF7DDFD0126CDE90076A3
:103130000227CDE9024769465046FDF7D3FD03203B
:10314000CDE90005694602945846FDF7CBFDCDF860
:1031500000900397CDE9016469465846FDF7C2FD2A
:103160007003CDE90004694658460294FDF7BAFDA4
:10317000CDF80080CDE9015469465046FDF7B2FD17
:10318000CDF800800397CDE9016469462148FDF739
:10319000A9FD002211460620FEF7C8FA0620FEF718
:1031A000B7FA002211460720FEF7C0FA0720FEF703
:1031B000AFFA002211460820FEF7B8FA0820FEF701
:1031C000A7FA002211460920FEF7B0FA0920FEF7FF
:1031D0009FFA002211460A20FEF7A8FA0A20FEF7FD
:1031E00097FA002211461720FEF7A0FA1720FEF7E3
:1031F0008FFA002211462820FEF798FA2820FEF7C1
:1032000087FA05B0BDE8F08F0010024000080140C9
:10321000000C0140001001400000111000002110BE
:1032200010B586B0002412480094019402940394CF
:1032300004940E490594016047F6FF41C0E901146A
:103240003121C0E9031444618461FEF7BBFE4FF4F1
:103250008050009069460648FEF728FF049404A9B0
:1032600003480594FEF78DFE06B010BD002C01400A
:103270001C01002010B586B0002411480094019470
:103280000294039404944FF08041059401604FF63A
:10329000FF11C0E901143121C0E903148461FEF774
:1032A00091FE4FF48050009069460548FEF7FEFEFF
:1032B000049404A902480594FEF763FE06B010BD0D
:1032C0005C01002010B58EB0002407940894099486
:1032D0000A940B941C2168460C94FCF73AFF204892
:1032E0001E4901602721C0E901146421C0E90314CB
:1032F0008461FEF767FE4FF48050079007A91848D5
:10330000FEF7D4FE1648FFF78CF80B940BA914486F
:103310000C94FEF736FE60200090B220CDE9010447
:10332000002269460E480494FFF713F80422694608
:103330000B480194FFF70DF83120019008226946EF
:103340000748FFF706F80C22694605480194FFF785
:1033500000F80348FEF7CAFF0EB010BD000400409D
:103360009C01002010B586B00024124800940194FE
:103370000294039404940E49059401604FF6FF11E2
:10338000C0E901143121C0E903148461FEF71AFE7B
:103390004FF48050009069460648FEF787FE04947B
:1033A00004A904480594FEF7ECFD06B010BD00002A
:1033B00000080040DC010020FEE77047704770B550
:1033C0000446FDF785FD05464FF47A7606E0FDF7E5
:1033D0007FFD401BB04201D9032070BD20684068CA
:1033E0008006F4D52068416841F01001416000205A
:1033F00070BD000070B504460068416821F01001FE
:103400004160FDF765FD05464FF47A7607E000BFA1
:10341000FDF75EFD401BB04201D9032070BD20685E
:1034200040688006F4D5002070BD7047FEF718B9DB
:1034300030B593B028216846FCF78BFE14210AA80A
:10344000FCF787FE00240F940620009001201294C0
:1034500003900490102005904FF46010CDE90840CF
:1034600011940225109407956846FEF75DFB0F2026
:10347000CDE90A056802CDE90C404FF4A0600E903A
:1034800002210AA8FEF764FA03200F90E801CDE9B3
:1034900010040FA8FEF7E6F913B030BD0D4801681F
:1034A00041F00101016041680B4A1140416001682F
:1034B0000A4A11400160016821F4802101604168DD
:1034C00021F4FE0141604FF41F0181600449C003F3
:1034D00008607047001002400000FFF8FFFFF6FE92
:1034E00008ED00E00348016841F001010160024875
:1034F000FEF748BE082401401C0100202DE9F041E0
:103500002D4D28682D492E4F2E4E096800248842E3
:1035100008D22D49022008702C4908703C70347084
:1035200001F01AF82A483B7801788B4207D96229C2
:1035300001D2891C0170C9B2994207D807E0052958
:1035400001D9891E0170C9B2994200D20370214984
:1035500036780A78964207D9622A01D2921C0A70FC
:10356000D2B2B24207D807E0052A01D9921E0A70EA
:10357000D2B2B24200D20E7006B90C7003B9047018
:10358000154A09781160111D0078086028681349F0
:103590000968401A12490228086008D301F082F92C
:1035A000104804701048016841F020010160BDE836
:1035B000F0410E48FEF7E6BD1C28004054000020F4
:1035C0005C0000205D0000205B0000205A0000200D
:1035D000580000205900002034040040240000203E
:1035E00028000020220000200C0801405C0100207F
:1035F0000148FEF7C7BD00009C0100200548064AAF
:10360000016801EB41111160002101600348FEF7E0
:10361000B9BD00001800002010000020DC010020CF
:10362000F0B50268164B174C174D4FF08047984283
:1036300005D0B84203D0A04201D0A84203D122F065
:1036400070064A683243984205D0B84203D0A0427F
:1036500001D0A84203D122F44074CA6822434C69C5
:1036600022F08002224302608A68C2620A68826293
:10367000984201D10969016301214161F0BD000057
:10368000002C0140000400400008004010B5846890
:1036900042EA032224F47F440A432243826010BD9D
:1036A000826822F070020A4342F00701816070478D
:1036B00030B5026A22F001020262026A436884693C
:1036C00024F073050C682C4322F002058A682A4313
:1036D0000A4DA8420BD122F00805CA6823F44073B2
:1036E0002A434D6922F004021D438B692B4343603A
:1036F000846149684163026230BD0000002C0140D2
:1037000030B5026A22F010020262026A43688469DC
:103710000D6824F4E64444EA05248D6822F0200272
:1037200042EA05120B4DA8420ED1CD6822F080026C
:1037300042EA05124D6923F4406343EA85038D692B
:1037400022F0400243EA8503436084614968816353
:10375000026230BD002C014030B5026A22F4807252
:103760000262036A4268C46923F4007324F073059B
:103770000C682C438D6843EA05230C4DA8420ED1FA
:10378000CD6823F4006343EA05234D6922F44052D7
:1037900042EA05128D6923F4806342EA0512426011
:1037A000C4614968C163036230BD0000002C014060
:1037B00030B5026A22F480520262046A4268C36928
:1037C0000D6823F4E64343EA05238D6824F400548E
:1037D00044EA0534064DA84204D14D6922F48042E2
:1037E00042EA85124260C36149680164046230BDE7
:1037F000002C014010B5036A046A24F0010404623D
:10380000846924F0F00444EA021423F00A020A4313
:103810008461026210BD10B5036A23F010030362D5
:103820008369046A23F4704343EA023224F0A0035C
:1038300043EA01118261016210BD10B5406A0021A6
:10384000C185C184FEF70CFE10BD0168CA6822F470
:103850009072CA6001684A6922F001024A6120211F
:1038600080F83A10704710B590F83A10222901D02C
:10387000022010BD8168B1F5805F11D00169002977
:1038800001681FD0496801F07F03816A4A1C826287
:103890000B70C18D491E0904090CC18518D02BE09D
:1038A0000269816A002A0268526805D0D2B20A8091
:1038B000816A491C8162ECE7C2F308020A80816ACE
:1038C000891CF7E74A68816A4B1C83620A70E0E74B
:1038D0000168CA6822F02002CA600168CA6822F43E
:1038E0008072CA6001684A6922F001024A6120219F
:1038F00080F83A10FEF733FF002010BD2DE9F041AB
:10390000044600680169E26821F4405111430161F5
:103910002169A0680843616908432168CA6841F2C7
:103920000C639A430243CA6020684169A26921F48A
:103930004071114341611E49206864253226884246
:1039400002D1FEF7ABF801E0FEF798F800EBC001FA
:1039500001EB001160686FF018078000B1FBF0F216
:10396000B2FBF5F2B1FBF0F37A4303EB8202B1FB59
:10397000F0F306EB0212B2FBF5F2B3FBF5F302F043
:10398000F00202EB0312B1FBF0F3B1FBF0F0B0FB7D
:10399000F5F0784303EB800006EB0010B0FBF5F088
:1039A000216800F00F0010448860BDE8F08100003D
:1039B0000038014090F83910212901D002207047C9
:1039C0008168B1F5805F016A0BD04A1C026202680F
:1039D00009785160C18C491E0904090CC1840ED0BC
:1039E00017E009880268C1F30801516001690029E4
:1039F000016A02D0491C0162ECE7891CFBE70168FF
:103A0000CA6822F08002CA600068C16841F04001C3
:103A1000C16000207047000070B50E48FEF722FD1F
:103A20000C4C00250C4EA08D062809D1E08D38B92C
:103A300006220A490A48FEF793FEA5850120307048
:103A4000A08C012804D1E08C002801D1A584357018
:103A500070BD00001C020020210000202C0000206E
:103A60005C0200200148FEF7FDBC00005C02002063
:103A70000A4810B5C08D58B9094C2078012807D1E3
:103A80000848094902780548FEF76AFE00202070C0
:103A9000BDE810400148FEF7E5BC00009C02002094
:103AA00005000020030000200A000020FEE7490076
:103AB00050EAC12018BF04204A0D18BF40F0010091
:103AC00040F2FF72B2EB515F08BF40F002000128E4
:103AD00008BF052070470907090E002804DB00F124
:103AE000E02080F80014704700F00F0000F1E020A3
:103AF00080F8141D704700002DE9F74F144694B06C
:103B00000021C4E902111599079121F00045C94926
:103B10008D4206DC1599C4E9000117B00020BDE80C
:103B2000F08FC549DFF814A3A9423CDD0799C44EC4
:103B30000029C44FC44A1599534619DDFCF7B5FB5B
:103B4000554506D0C14AC24BFCF7AFFBC4E90001A2
:103B50000AE04FF0D352BE4BFCF7A7FB32463B4680
:103B6000FCF7A3FBC4E9000117B00120BDE8F08F0A
:103B7000FCF7FAFA554506D0B44AB54BFCF7F4FA0F
:103B8000C4E900010AE04FF0D352B14BFCF7ECFA64
:103B900032463B46FCF7E8FAC4E9000117B04FF0A3
:103BA000FF30BDE8F08FAB49A942159978DB21F0D1
:103BB000004183468846A84AA84BFCF77CFB0022BC
:103BC000A74BFCF7D1FAFCF768FC0990FCF754FC12
:103BD00006460F469C4A5346FCF76DFB43465A4641
:103BE000FCF766FB80468A46984A994B3046394630
:103BF000FCF761FB2A0D01250B9242465346FCF768
:103C000057FB032DC4E9000139D00B98C1F30A51C9
:103C1000401A05EB45111139814230DA9148C3460B
:103C2000784400EB0510CDF80CA00C90D0E90023EF
:103C300030463946FCF73FFB02460B46049106909E
:103C400058460399FCF731FB80468A4602460B46EC
:103C500058460399FCF729FB049B069AFCF725FBC1
:103C600083460C9803913946D0E902233046FCF78D
:103C700022FB5A46039BFCF718FB6D1CBDE7079817
:103C80000028A2BF099817B0BDE8F08F616881F0E5
:103C900000416160099817B04042BDE8F08FFFE72E
:103CA00084461598C1F31301C0F30A50A0F2F53011
:103CB0004FEA601800F01F06C6F1200013900020A4
:103CC0000690079041F4801E05206D4676B1664A45
:103CD00008EB00017A4452F8213002EB8101B34035
:103CE0004A68139922FA01F1194305E05F4908EB8C
:103CF0000002794451F82210A1FB0E27A1FB0C13FE
:103D00001A449A4234BF0123002303EB070A05EB50
:103D10008003D3E901B70F448F4234BF0121002152
:103D200093448B4411B1934502D903E0934501D2EA
:103D3000012100E00021C3E901B7514445F82010FA
:103D4000011EA0F10100C1DC0298059F00F10050A6
:103D5000800F12900298DDE903568000FCF78CFB7F
:103D6000834628460D91FCF75EFC6FF01D02FCF7C0
:103D700043FCCDE90E013046FCF755FC6FF03D02E7
:103D8000FCF73AFC80468A463846FCF74CFC6FF05C
:103D90005D02FCF731FC0746424653461191FCF7A1
:103DA000E3F9DDE90E23FCF7DFF95A460D9BFCF73A
:103DB000DBF900250E465A4628460D9BFCF775FA9E
:103DC000DDE90E23FCF771FA42465346FCF76DFA23
:103DD0003A46119BFCF76CFADFF898A0244A534648
:103DE000FCF769FA07468846234A244B31462846A1
:103DF000FCF761FA3A464346FCF7B6F907468846AF
:103E00004FF0A842534631462846FCF754FA3A464A
:103E10004346FCF7A9F9159A12F0004F04D0129A04
:103E200081F0004152421292C4E90001129817B089
:103E3000BDE8F08FFB21E93F7CD90240FB21F93F2F
:103E40007370032E8A19A33B000040543163621A39
:103E500061B4D03DFB21394183C8C96D305FE43F77
:103E60000000E03FE40C0000600C0000420C000089
:103E7000182D4454FB21F93D3326A611460B113C65
:103E80002DE9FF4D21F0004807460C46B8F1795F57
:103E900008DAFCF702FB002801BF0020324904B019
:103EA000BDE8F08D3A46234610461946FCF703FA62
:103EB000054602462D480E460B460621784400F082
:103EC0005DF82A463346FCF7F6F9DDE9022382461F
:103ED0008B4638462146FCF7EEF904460F4652461B
:103EE0005B4628463146FCF7E6F922463B46FCF79E
:103EF000DCF907468A464FF0FF3228463146FCF788
:103F00007BFB1B4A90450ADA3A465346FCF7CDF94B
:103F100004B00022BDE8F04D134BFCF7C9B9154AB7
:103F20004245A8BFA8F500154FF00004B8BF124DD8
:103F300022462B46FCF7B9F90646884622462B4610
:103F400000200949FCF7B1F904460D463A465346AC
:103F500030464146FCF7A9F904B022462B46BDE89D
:103F6000F04DFCF7A5B900000000F03F180A000072
:103F70003333D33F0000E93F0000D23F2DE9F04149
:103F80004F1E00EBC7010446D1E9000115461E464D
:103F900037F006020DD02A463346FCF78CF97F1E17
:103FA00004EBC703D3E90023FCF7DEF837F0060281
:103FB000F1D1022F25D0042F13D0062F18BFBDE852
:103FC000F0812A463346FCF776F9D4E90A23FCF758
:103FD000CBF82A463346FCF76EF9D4E90823FCF700
:103FE000C3F82A463346FCF766F9D4E90623FCF702
:103FF000BBF82A463346FCF75EF9D4E90423FCF704
:10400000B3F82A463346FCF756F9D4E90223FCF705
:10401000ABF82A463346FCF74EF9D4E90023BDE855
:10402000F041FCF7A1B800002DE9FF4D054621F055
:10403000004084B00C46B0F1795F0BDA2846FFF7F8
:1040400036FD042808BF00F06FF8284608B0214666
:10405000BDE8F08D2A460B461046FCF72CF90646C3
:104060000F462A462346FCF726F9804626488A460C
:1040700032463B4605217844FFF780FF834610987F
:10408000029160B3214A224B40465146FCF713F996
:10409000CDE900015A4640465146029BFCF70BF918
:1040A00082468846DDE906014FF0FF32FCF7A4FAAC
:1040B00052464346FCF7F9F832463B46FCF7FBF81C
:1040C000DDE90623FCF7F1F8DDE90023FCF7EDF864
:1040D00008B02A462346BDE8F04DFCF7E9B80B4688
:1040E0005A4630463946FCF7E6F8084A084BFCF7D2
:1040F0003BF842465346FCF7DEF808B02A46234612
:10410000BDE8F04DFCF730B856090000495555554B
:104110005555C5BF0122FCF76FBA00221346104661
:104120001146FCF73AB90000024A00201107FCF7DB
:1041300063BA000001FDFFFF02E008C8121F08C1BA
:10414000002AFAD170477047002001E001C1121F18
:10415000002AFBD170470000014908607047000049
:104160008000002010B50A4C00200A496070A07041
:1041700008600220E0712078012802D1002000F0C0
:10418000A5F8206910B1002000F0A0F8012010BDB2
:10419000000000203804004000B5244B21F000420C
:1041A00087B09A42DCBF0022134629DD204B9A4299
:1041B00008D140B94FF00100FFF7CEFFFFF7ADFF88
:1041C00007B000BD03DBFFF7A5FF07B000BD02AAE3
:1041D000FFF792FC10F0030104BF0DF1080C9CE8FE
:1041E0000F000DD0012001290ED0022914D00DF1AD
:1041F000080C00909CE80F00FFF716FF07B000BD09
:10420000FFF73EFE07B000BD0DF1080C00909CE8E2
:104210000F00FFF709FF05E00DF1080C9CE80F0007
:10422000FFF72EFE07B081F0004100BDFB21E93F02
:104230000000F07F024940F66600486170470000C8
:104240000000002010B5162801D0002010BD094A3A
:104250000223A2F10A04107051700120E071E0897C
:104260004FF6FF7101EA40010348FDF74FF9607A0C
:1042700010BD000046000020B400002070B51049B9
:104280000868104A460610484FF000054FF0010339
:104290004FF0020401D4457205E09668B60601D4D9
:1042A000437200E044720968C90601D4037270BD0C
:1042B0009168090701D4057270BD047270BD0000D9
:1042C00008080140001001400000002070B50546BC
:1042D000024680211548FCF7F5FDFFF7CFFF144C8F
:1042E0004020C0222571237A012604F10A014DB134
:1042F000012B00D07F200870607A01280AD080202E
:10430000487008E00BB10E7000E00870607A08B1E8
:10431000FF20F5E74A7006490222E2700A3105489B
:10432000FEF71EFA00B16671012070BD0008014061
:10433000000000209C02002077491F20086076487A
:1043400008380068744940F0100008390860C81344
:1043500071490860072008606F48083800686E4996
:1043600000F0EF0008390860FDF782F9FFF760F808
:10437000FEF77EFE6A496948002408606948486083
:1043800008468460C4604FF4804008610846446178
:104390008461C4610462FCF733FF644862490C2500
:1043A00001604FF41651C0E90114C460C0E904452E
:1043B0008461C461FEF7DEF85C485D4940304FF42B
:1043C000E1360160C0E90164C460C0E9044584616C
:1043D000C461FEF7CFF85548564980300160C0E906
:1043E0000164C460C0E904458461C461FEF7C2F899
:1043F000FEF71EFE4A48484954300C390160611EE0
:1044000041604FF480718160FDF71EFDFEF708FFEB
:10441000FEF758FFFEF72EFFFEF7A4FF464801689F
:1044200041F00101016044480C30016841F0010194
:104430000160016841F010010160016841F4807180
:104440000160016841F4805101603B4881221438C9
:1044500002603949012008390860374920310C6071
:10446000091D0C60344B2021283319601B1D196075
:1044700081074B6943F001034B610B6A43F0010371
:104480000B620A60C8604C632C4908602B490C31F0
:1044900008602B4908602A490C310860FFF7CAFE02
:1044A0002848016841F020010160001D016841F0C9
:1044B00001010160016841F001010160FCF7ECF8C5
:1044C0002148224D00880009A8701448183000685F
:1044D0001F4C00BF00F09EF9D0B1681C00F06AF9D3
:1044E0002078401C207000F043F92070287900F0FB
:1044F00045F908B1FB202070E9782879FFF7A2FE82
:1045000008B1FC2020700121114800F0B7F9E1E763
:10451000104904200860DDE70C28004000540040EA
:10452000B4000020A0860100003801401C020020D9
:1045300000440040004800401404004000080040CF
:10454000002C014004240140140000202C00002015
:10455000230000201C00002010B50B48002402217D
:10456000046144618460C46004714471C1708170ED
:10457000224649020548FCF7A5FC05480460001DD9
:104580000460012010BD0000580000200010014010
:10459000340400402DE9F0470C46FBF76DFF8A46D6
:1045A00081464A46534600205249FBF7F6FE4A46EA
:1045B0005346FBF7D9FD654206460F46002C01DB4A
:1045C000204600E02846201A00EBD0704010FBF790
:1045D00053FF32463B46FBF7E0FEFFF7DDFD4A4660
:1045E0005346FBF768FEFBF758FFDFF80C81002C01
:1045F000C8F8100000DB2546281900EBD0704010E9
:10460000FBF73AFF32463B46FBF7C7FEFFF7C4FD18
:104610004A465346FBF74FFEFBF73FFFC8F814002E
:10462000D8F81050354A0124002341464FF67F56F2
:10463000002D08DDCC70156805EA060515601568C3
:1046400045F080050BE00BDACB70C5F100050D617C
:10465000156805EA06051560156845F400751560CE
:10466000274A002808DD8C701068C0F30D00106028
:10467000106840F480400BE00BDA8B70C0F1000052
:1046800048611068C0F30D001060106840F40040ED
:1046900010600869C0EB401202EB80104FF07D0201
:1046A00090FBF2F000F1050008714869C0EB40137F
:1046B00003EB801090FBF2F000F1050048710A78DE
:1046C0004FF0050002B908704A780AB988F801006D
:1046D0004FF080404FF03101C162016841F00101AB
:1046E00001604FF001024FF480610648FCF7EAFBDD
:1046F000BDE8F08700707740580000200C080140AA
:104700000C0C0140001001402DE9F0411548FC223D
:10471000802103780625144E144FA0F10904FE2BC6
:1047200002D14379FF2B17D02270417081700D4860
:104730000121093800F0A2F8F585012280213846D0
:10474000FCF7C0FB0420207006480121093800F066
:1047500095F80020BDE8F081024901200C3908706D
:104760000220F7E72C0000201C0200200008014076
:1047700001480078704700003C00002010B5012877
:1047800001D0002010BD09491520A1F10A040870CC
:104790000120E070E0894FF6FF7101EA400101233A
:1047A000024A0348FCF7B2FE607910BD46000020C3
:1047B000B400002010B501460078A0F16E021F2A57
:1047C00009D3074A7D38906049787D39D160BDE8CA
:1047D0001040FFF7DFBEFFF7BFFE002010BD000056
:1047E0005800002010B5062208490948FDF78EFF41
:1047F00038B9064901200C39887004480078FE2831
:1048000001D0002010BD012010BD00002C000020B0
:104810001C02002070B5164C6078012802D0207868
:1048200020B115E0BDE87040FFF76EBFA078114ED3
:10483000114D78B130686168401AA060022807D92C
:1048400000F030F80020A070286840F020002860B8
:10485000002070BDFFF7C6FF0028FAD03068606006
:1048600028684FF6DF7108402860012070BD000005
:10487000200000201C2800400C0801408AB210B51E
:1048800001460648FDF76CFF00284FF0000003D1F9
:10489000034908708870012010BD00001C02002030
:1048A00020000020054910B502200870FFF75AFCCF
:1048B000FFF7C0FCFFF750FE002010BD04000020F1
:1048C00000000000000000000102030406070809C0
:1048D00000000000010203044C5555555555A53FF5
:1048E0007751C1166CC156BF9015CB19A001FA3E85
:1048F000AD529C804F7E92BEC4B1B4BD9EEE213EAF
:10490000D43888BEE9FAA8BD00004054FB21F93F25
:104910003163621A61B4D03D0000601A61B4D03DC9
:104920007370032E8A19A33B0000002E8A19A33B43
:10493000C14920259A837B39000000000000000057
:104940006E83F9A22915444ED15727FCC0DD34F5FA
:10495000999562DB4190433CAB6351FE61C5BBDE80
:104960003A6E24B7E0D24D42EA2E49061C92D10994
:104970001CEB1DFE3EA729B1F53582E88444BB2E11
:1049800026709CE9417E5FB439D69139F43953835E
:104990008B5F849C3B28F9BDFF97F81F0F9805DEBD
:1049A0008B112FEF1F6D0A5ACF7E366DB709CB27BB
:1049B000663F464F2DEA5F9EC7BA27757BF1E5EB50
:1049C000F739073DEA92528AB15FFB6B085D8D1F94
:1049D000A6F810111111813FD561C119A0012ABF9C
:1049E0007DFEB157E31DC73EEB9C2B8AE6E55ABE20
:1049F0007CD5CF5A3AD9E53D184A0008000000207E
:104A000084000000384100089C4A0008840000200F
:104A10005C060000484100080100000002000000A0
:104A20000000000000000000000000000000000086
:104A30000000000000000000000000000000000076
:104A40000000000000000000000000000000000066
:104A50000000000000000000000000000000000056
:104A60000000000000000000000000000000000046
:104A70000000000000000000000000000000000036
:104A80000000000000000000010000001000000015
:0C4A9000000000000024F4000000000002
:04000005080000ED02
:00000001FF
